{
  "_format": "hh-sol-artifact-1",
  "contractName": "Messenger",
  "sourceName": "contracts/Messenger.sol",
  "abi": [
    {
      "inputs": [
        {
          "internalType": "uint256",
          "name": "_numOfPendingLimits",
          "type": "uint256"
        }
      ],
      "stateMutability": "payable",
      "type": "constructor"
    },
    {
      "anonymous": false,
      "inputs": [
        {
          "indexed": false,
          "internalType": "address",
          "name": "receiver",
          "type": "address"
        },
        {
          "indexed": false,
          "internalType": "uint256",
          "name": "index",
          "type": "uint256"
        }
      ],
      "name": "MessageConfirmed",
      "type": "event"
    },
    {
      "anonymous": false,
      "inputs": [
        {
          "indexed": false,
          "internalType": "address",
          "name": "sender",
          "type": "address"
        },
        {
          "indexed": false,
          "internalType": "address",
          "name": "receiver",
          "type": "address"
        },
        {
          "indexed": false,
          "internalType": "uint256",
          "name": "depositInWei",
          "type": "uint256"
        },
        {
          "indexed": false,
          "internalType": "uint256",
          "name": "timestamp",
          "type": "uint256"
        },
        {
          "indexed": false,
          "internalType": "string",
          "name": "text",
          "type": "string"
        },
        {
          "indexed": false,
          "internalType": "bool",
          "name": "isPending",
          "type": "bool"
        }
      ],
      "name": "NewMessage",
      "type": "event"
    },
    {
      "anonymous": false,
      "inputs": [
        {
          "indexed": false,
          "internalType": "uint256",
          "name": "limits",
          "type": "uint256"
        }
      ],
      "name": "NumOfPendingLimitsChanged",
      "type": "event"
    },
    {
      "inputs": [
        {
          "internalType": "uint256",
          "name": "_index",
          "type": "uint256"
        }
      ],
      "name": "accept",
      "outputs": [],
      "stateMutability": "nonpayable",
      "type": "function"
    },
    {
      "inputs": [
        {
          "internalType": "uint256",
          "name": "_limits",
          "type": "uint256"
        }
      ],
      "name": "changeNumOfPendingLimits",
      "outputs": [],
      "stateMutability": "nonpayable",
      "type": "function"
    },
    {
      "inputs": [
        {
          "internalType": "uint256",
          "name": "_index",
          "type": "uint256"
        }
      ],
      "name": "deny",
      "outputs": [],
      "stateMutability": "payable",
      "type": "function"
    },
    {
      "inputs": [],
      "name": "getOwnMessages",
      "outputs": [
        {
          "components": [
            {
              "internalType": "address payable",
              "name": "sender",
              "type": "address"
            },
            {
              "internalType": "address payable",
              "name": "receiver",
              "type": "address"
            },
            {
              "internalType": "uint256",
              "name": "depositInWei",
              "type": "uint256"
            },
            {
              "internalType": "uint256",
              "name": "timestamp",
              "type": "uint256"
            },
            {
              "internalType": "string",
              "name": "text",
              "type": "string"
            },
            {
              "internalType": "bool",
              "name": "isPending",
              "type": "bool"
            }
          ],
          "internalType": "struct Messenger.Message[]",
          "name": "",
          "type": "tuple[]"
        }
      ],
      "stateMutability": "view",
      "type": "function"
    },
    {
      "inputs": [],
      "name": "numOfPendingLimits",
      "outputs": [
        {
          "internalType": "uint256",
          "name": "",
          "type": "uint256"
        }
      ],
      "stateMutability": "view",
      "type": "function"
    },
    {
      "inputs": [],
      "name": "owner",
      "outputs": [
        {
          "internalType": "address",
          "name": "",
          "type": "address"
        }
      ],
      "stateMutability": "view",
      "type": "function"
    },
    {
      "inputs": [
        {
          "internalType": "string",
          "name": "_text",
          "type": "string"
        },
        {
          "internalType": "address payable",
          "name": "_receiver",
          "type": "address"
        }
      ],
      "name": "post",
      "outputs": [],
      "stateMutability": "payable",
      "type": "function"
    }
  ],
  "bytecode": "0x608060405260405162001e1638038062001e168339818101604052810190620000299190620001e0565b620000746040518060400160405280602081526020017f48657265206973206d7920666972737420736d61727420636f6e7472616374218152506200009260201b62000bf81760201c565b620000846200013560201b60201c565b8060018190555050620002da565b6200013281604051602401620000a99190620002b6565b6040516020818303038152906040527f41304fac000000000000000000000000000000000000000000000000000000007bffffffffffffffffffffffffffffffffffffffffffffffffffffffff19166020820180517bffffffffffffffffffffffffffffffffffffffffffffffffffffffff83818316178352505050506200017760201b60201c565b50565b336000806101000a81548173ffffffffffffffffffffffffffffffffffffffff021916908373ffffffffffffffffffffffffffffffffffffffff160217905550565b60008151905060006a636f6e736f6c652e6c6f679050602083016000808483855afa5050505050565b600080fd5b6000819050919050565b620001ba81620001a5565b8114620001c657600080fd5b50565b600081519050620001da81620001af565b92915050565b600060208284031215620001f957620001f8620001a0565b5b60006200020984828501620001c9565b91505092915050565b600081519050919050565b600082825260208201905092915050565b60005b838110156200024e57808201518184015260208101905062000231565b838111156200025e576000848401525b50505050565b6000601f19601f8301169050919050565b6000620002828262000212565b6200028e81856200021d565b9350620002a08185602086016200022e565b620002ab8162000264565b840191505092915050565b60006020820190508181036000830152620002d2818462000275565b905092915050565b611b2c80620002ea6000396000f3fe6080604052600436106100705760003560e01c806356f662821161004e57806356f66282146100e5578063837106bb146101015780638da5cb5b1461012a578063acdb8efd1461015557610070565b806313e262711461007557806319b05f491461009157806339869bc3146100ba575b600080fd5b61008f600480360381019061008a91906111d6565b610180565b005b34801561009d57600080fd5b506100b860048036038101906100b39190611268565b610486565b005b3480156100c657600080fd5b506100cf6106bd565b6040516100dc91906112a4565b60405180910390f35b6100ff60048036038101906100fa9190611268565b6106c3565b005b34801561010d57600080fd5b5061012860048036038101906101239190611268565b6108fa565b005b34801561013657600080fd5b5061013f6109cb565b60405161014c91906112e0565b60405180910390f35b34801561016157600080fd5b5061016a6109ef565b6040516101779190611507565b60405180910390f35b600154600360008373ffffffffffffffffffffffffffffffffffffffff1673ffffffffffffffffffffffffffffffffffffffff1681526020019081526020016000205410610203576040517f08c379a00000000000000000000000000000000000000000000000000000000081526004016101fa906115ac565b60405180910390fd5b6001600360008373ffffffffffffffffffffffffffffffffffffffff1673ffffffffffffffffffffffffffffffffffffffff168152602001908152602001600020600082825461025391906115fb565b9250508190555061029b6040518060400160405280601d81526020017f257320706f73747320746578743a5b25735d20746f6b656e3a5b25645d000000815250338434610c91565b600260008273ffffffffffffffffffffffffffffffffffffffff1673ffffffffffffffffffffffffffffffffffffffff1681526020019081526020016000206040518060c001604052803373ffffffffffffffffffffffffffffffffffffffff1681526020018373ffffffffffffffffffffffffffffffffffffffff16815260200134815260200142815260200184815260200160011515815250908060018154018082558091505060019003906000526020600020906006020160009091909190915060008201518160000160006101000a81548173ffffffffffffffffffffffffffffffffffffffff021916908373ffffffffffffffffffffffffffffffffffffffff16021790555060208201518160010160006101000a81548173ffffffffffffffffffffffffffffffffffffffff021916908373ffffffffffffffffffffffffffffffffffffffff1602179055506040820151816002015560608201518160030155608082015181600401908051906020019061041d929190610f7b565b5060a08201518160050160006101000a81548160ff02191690831515021790555050507f6b8f49facd5e00a27899ac1ac6cd3edeb40299f83f03eac03a0c04e7a90590963382344286600160405161047a969594939291906116f8565b60405180910390a15050565b61048f81610d33565b6000600260003373ffffffffffffffffffffffffffffffffffffffff1673ffffffffffffffffffffffffffffffffffffffff16815260200190815260200160002082815481106104e2576104e1611760565b5b90600052602060002090600602016040518060c00160405290816000820160009054906101000a900473ffffffffffffffffffffffffffffffffffffffff1673ffffffffffffffffffffffffffffffffffffffff1673ffffffffffffffffffffffffffffffffffffffff1681526020016001820160009054906101000a900473ffffffffffffffffffffffffffffffffffffffff1673ffffffffffffffffffffffffffffffffffffffff1673ffffffffffffffffffffffffffffffffffffffff16815260200160028201548152602001600382015481526020016004820180546105cb906117be565b80601f01602080910402602001604051908101604052809291908181526020018280546105f7906117be565b80156106445780601f1061061957610100808354040283529160200191610644565b820191906000526020600020905b81548152906001019060200180831161062757829003601f168201915b505050505081526020016005820160009054906101000a900460ff161515151581525050905061067c81602001518260400151610ea1565b7f2657c0f1a183b8a175f4cf6c3f6d7764c7265155fc9635682baad3cedd67d2878160200151836040516106b19291906117f0565b60405180910390a15050565b60015481565b6106cc81610d33565b6000600260003373ffffffffffffffffffffffffffffffffffffffff1673ffffffffffffffffffffffffffffffffffffffff168152602001908152602001600020828154811061071f5761071e611760565b5b90600052602060002090600602016040518060c00160405290816000820160009054906101000a900473ffffffffffffffffffffffffffffffffffffffff1673ffffffffffffffffffffffffffffffffffffffff1673ffffffffffffffffffffffffffffffffffffffff1681526020016001820160009054906101000a900473ffffffffffffffffffffffffffffffffffffffff1673ffffffffffffffffffffffffffffffffffffffff1673ffffffffffffffffffffffffffffffffffffffff1681526020016002820154815260200160038201548152602001600482018054610808906117be565b80601f0160208091040260200160405190810160405280929190818152602001828054610834906117be565b80156108815780601f1061085657610100808354040283529160200191610881565b820191906000526020600020905b81548152906001019060200180831161086457829003601f168201915b505050505081526020016005820160009054906101000a900460ff16151515158152505090506108b981600001518260400151610ea1565b7f2657c0f1a183b8a175f4cf6c3f6d7764c7265155fc9635682baad3cedd67d2878160200151836040516108ee9291906117f0565b60405180910390a15050565b60008054906101000a900473ffffffffffffffffffffffffffffffffffffffff1673ffffffffffffffffffffffffffffffffffffffff163373ffffffffffffffffffffffffffffffffffffffff1614610988576040517f08c379a000000000000000000000000000000000000000000000000000000000815260040161097f90611865565b60405180910390fd5b806001819055507ff4add848113971c4866581c1df1951b8665a05140021ce0d344d1e823b8133c86001546040516109c091906112a4565b60405180910390a150565b60008054906101000a900473ffffffffffffffffffffffffffffffffffffffff1681565b6060600260003373ffffffffffffffffffffffffffffffffffffffff1673ffffffffffffffffffffffffffffffffffffffff168152602001908152602001600020805480602002602001604051908101604052809291908181526020016000905b82821015610bef57838290600052602060002090600602016040518060c00160405290816000820160009054906101000a900473ffffffffffffffffffffffffffffffffffffffff1673ffffffffffffffffffffffffffffffffffffffff1673ffffffffffffffffffffffffffffffffffffffff1681526020016001820160009054906101000a900473ffffffffffffffffffffffffffffffffffffffff1673ffffffffffffffffffffffffffffffffffffffff1673ffffffffffffffffffffffffffffffffffffffff1681526020016002820154815260200160038201548152602001600482018054610b43906117be565b80601f0160208091040260200160405190810160405280929190818152602001828054610b6f906117be565b8015610bbc5780601f10610b9157610100808354040283529160200191610bbc565b820191906000526020600020905b815481529060010190602001808311610b9f57829003601f168201915b505050505081526020016005820160009054906101000a900460ff16151515158152505081526020019060010190610a50565b50505050905090565b610c8e81604051602401610c0c9190611885565b6040516020818303038152906040527f41304fac000000000000000000000000000000000000000000000000000000007bffffffffffffffffffffffffffffffffffffffffffffffffffffffff19166020820180517bffffffffffffffffffffffffffffffffffffffffffffffffffffffff8381831617835250505050610f52565b50565b610d2d84848484604051602401610cab94939291906118a7565b6040516020818303038152906040527f91d1112e000000000000000000000000000000000000000000000000000000007bffffffffffffffffffffffffffffffffffffffffffffffffffffffff19166020820180517bffffffffffffffffffffffffffffffffffffffffffffffffffffffff8381831617835250505050610f52565b50505050565b6000600260003373ffffffffffffffffffffffffffffffffffffffff1673ffffffffffffffffffffffffffffffffffffffff1681526020019081526020016000208281548110610d8657610d85611760565b5b906000526020600020906006020190508060010160009054906101000a900473ffffffffffffffffffffffffffffffffffffffff1673ffffffffffffffffffffffffffffffffffffffff163373ffffffffffffffffffffffffffffffffffffffff1614610e28576040517f08c379a0000000000000000000000000000000000000000000000000000000008152600401610e1f9061196c565b60405180910390fd5b600115158160050160009054906101000a900460ff16151514610e80576040517f08c379a0000000000000000000000000000000000000000000000000000000008152600401610e77906119fe565b60405180910390fd5b60008160050160006101000a81548160ff0219169083151502179055505050565b60008273ffffffffffffffffffffffffffffffffffffffff1682604051610ec790611a4f565b60006040518083038185875af1925050503d8060008114610f04576040519150601f19603f3d011682016040523d82523d6000602084013e610f09565b606091505b5050905080610f4d576040517f08c379a0000000000000000000000000000000000000000000000000000000008152600401610f4490611ad6565b60405180910390fd5b505050565b60008151905060006a636f6e736f6c652e6c6f679050602083016000808483855afa5050505050565b828054610f87906117be565b90600052602060002090601f016020900481019282610fa95760008555610ff0565b82601f10610fc257805160ff1916838001178555610ff0565b82800160010185558215610ff0579182015b82811115610fef578251825591602001919060010190610fd4565b5b509050610ffd9190611001565b5090565b5b8082111561101a576000816000905550600101611002565b5090565b6000604051905090565b600080fd5b600080fd5b600080fd5b600080fd5b6000601f19601f8301169050919050565b7f4e487b7100000000000000000000000000000000000000000000000000000000600052604160045260246000fd5b6110858261103c565b810181811067ffffffffffffffff821117156110a4576110a361104d565b5b80604052505050565b60006110b761101e565b90506110c3828261107c565b919050565b600067ffffffffffffffff8211156110e3576110e261104d565b5b6110ec8261103c565b9050602081019050919050565b82818337600083830152505050565b600061111b611116846110c8565b6110ad565b90508281526020810184848401111561113757611136611037565b5b6111428482856110f9565b509392505050565b600082601f83011261115f5761115e611032565b5b813561116f848260208601611108565b91505092915050565b600073ffffffffffffffffffffffffffffffffffffffff82169050919050565b60006111a382611178565b9050919050565b6111b381611198565b81146111be57600080fd5b50565b6000813590506111d0816111aa565b92915050565b600080604083850312156111ed576111ec611028565b5b600083013567ffffffffffffffff81111561120b5761120a61102d565b5b6112178582860161114a565b9250506020611228858286016111c1565b9150509250929050565b6000819050919050565b61124581611232565b811461125057600080fd5b50565b6000813590506112628161123c565b92915050565b60006020828403121561127e5761127d611028565b5b600061128c84828501611253565b91505092915050565b61129e81611232565b82525050565b60006020820190506112b96000830184611295565b92915050565b60006112ca82611178565b9050919050565b6112da816112bf565b82525050565b60006020820190506112f560008301846112d1565b92915050565b600081519050919050565b600082825260208201905092915050565b6000819050602082019050919050565b61133081611198565b82525050565b61133f81611232565b82525050565b600081519050919050565b600082825260208201905092915050565b60005b8381101561137f578082015181840152602081019050611364565b8381111561138e576000848401525b50505050565b600061139f82611345565b6113a98185611350565b93506113b9818560208601611361565b6113c28161103c565b840191505092915050565b60008115159050919050565b6113e2816113cd565b82525050565b600060c0830160008301516114006000860182611327565b5060208301516114136020860182611327565b5060408301516114266040860182611336565b5060608301516114396060860182611336565b50608083015184820360808601526114518282611394565b91505060a083015161146660a08601826113d9565b508091505092915050565b600061147d83836113e8565b905092915050565b6000602082019050919050565b600061149d826112fb565b6114a78185611306565b9350836020820285016114b985611317565b8060005b858110156114f557848403895281516114d68582611471565b94506114e183611485565b925060208a019950506001810190506114bd565b50829750879550505050505092915050565b600060208201905081810360008301526115218184611492565b905092915050565b600082825260208201905092915050565b7f54686520726563656976657220686173207265616368656420746865206e756d60008201527f626572206f662070656e64696e67206c696d6974730000000000000000000000602082015250565b6000611596603583611529565b91506115a18261153a565b604082019050919050565b600060208201905081810360008301526115c581611589565b9050919050565b7f4e487b7100000000000000000000000000000000000000000000000000000000600052601160045260246000fd5b600061160682611232565b915061161183611232565b9250827fffffffffffffffffffffffffffffffffffffffffffffffffffffffffffffffff03821115611646576116456115cc565b5b828201905092915050565b6000819050919050565b600061167661167161166c84611178565b611651565b611178565b9050919050565b60006116888261165b565b9050919050565b600061169a8261167d565b9050919050565b6116aa8161168f565b82525050565b60006116bb82611345565b6116c58185611529565b93506116d5818560208601611361565b6116de8161103c565b840191505092915050565b6116f2816113cd565b82525050565b600060c08201905061170d60008301896112d1565b61171a60208301886116a1565b6117276040830187611295565b6117346060830186611295565b818103608083015261174681856116b0565b905061175560a08301846116e9565b979650505050505050565b7f4e487b7100000000000000000000000000000000000000000000000000000000600052603260045260246000fd5b7f4e487b7100000000000000000000000000000000000000000000000000000000600052602260045260246000fd5b600060028204905060018216806117d657607f821691505b602082108114156117ea576117e961178f565b5b50919050565b600060408201905061180560008301856116a1565b6118126020830184611295565b9392505050565b7f596f75206172656e277420746865206f776e6572000000000000000000000000600082015250565b600061184f601483611529565b915061185a82611819565b602082019050919050565b6000602082019050818103600083015261187e81611842565b9050919050565b6000602082019050818103600083015261189f81846116b0565b905092915050565b600060808201905081810360008301526118c181876116b0565b90506118d060208301866112d1565b81810360408301526118e281856116b0565b90506118f16060830184611295565b95945050505050565b7f4f6e6c79207468652072656365697665722063616e20636f6e6669726d4d657360008201527f7361676520746865206d65737361676500000000000000000000000000000000602082015250565b6000611956603083611529565b9150611961826118fa565b604082019050919050565b6000602082019050818103600083015261198581611949565b9050919050565b7f54686973206d6573736167652068617320616c7265616479206265656e20636f60008201527f6e6669726d656400000000000000000000000000000000000000000000000000602082015250565b60006119e8602783611529565b91506119f38261198c565b604082019050919050565b60006020820190508181036000830152611a17816119db565b9050919050565b600081905092915050565b50565b6000611a39600083611a1e565b9150611a4482611a29565b600082019050919050565b6000611a5a82611a2c565b9150819050919050565b7f4661696c656420746f20776974686472617720415641582066726f6d20636f6e60008201527f7472616374000000000000000000000000000000000000000000000000000000602082015250565b6000611ac0602583611529565b9150611acb82611a64565b604082019050919050565b60006020820190508181036000830152611aef81611ab3565b905091905056fea264697066735822122048448c56b308c3718d9a39085ef86e9d1932b8f7b6e08658ae9f3431d410eeb164736f6c63430008090033",
  "linkReferences": {},
  "deployedLinkReferences": {}
}